{
  "contractName": "Pharma",
  "abi": [
    {
      "anonymous": false,
      "inputs": [
        {
          "indexed": false,
          "internalType": "uint256",
          "name": "medicineId",
          "type": "uint256"
        }
      ],
      "name": "medicineLaunched",
      "type": "event"
    },
    {
      "anonymous": false,
      "inputs": [
        {
          "indexed": false,
          "internalType": "uint256",
          "name": "organizationId",
          "type": "uint256"
        }
      ],
      "name": "organizationLaunched",
      "type": "event"
    },
    {
      "inputs": [
        {
          "internalType": "uint256",
          "name": "",
          "type": "uint256"
        }
      ],
      "name": "Medicines",
      "outputs": [
        {
          "internalType": "uint256",
          "name": "OrganizationId",
          "type": "uint256"
        },
        {
          "internalType": "uint256",
          "name": "id",
          "type": "uint256"
        },
        {
          "internalType": "string",
          "name": "name",
          "type": "string"
        },
        {
          "internalType": "uint256",
          "name": "manufacturingDate",
          "type": "uint256"
        },
        {
          "internalType": "uint256",
          "name": "expiryDate",
          "type": "uint256"
        }
      ],
      "stateMutability": "view",
      "type": "function",
      "constant": true
    },
    {
      "inputs": [
        {
          "internalType": "address",
          "name": "",
          "type": "address"
        }
      ],
      "name": "OrganizationOwners",
      "outputs": [
        {
          "internalType": "uint256",
          "name": "",
          "type": "uint256"
        }
      ],
      "stateMutability": "view",
      "type": "function",
      "constant": true
    },
    {
      "inputs": [
        {
          "internalType": "uint256",
          "name": "",
          "type": "uint256"
        }
      ],
      "name": "Organizations",
      "outputs": [
        {
          "internalType": "string",
          "name": "name",
          "type": "string"
        },
        {
          "internalType": "address",
          "name": "owner",
          "type": "address"
        }
      ],
      "stateMutability": "view",
      "type": "function",
      "constant": true
    },
    {
      "inputs": [],
      "name": "nextMedicineId",
      "outputs": [
        {
          "internalType": "uint256",
          "name": "",
          "type": "uint256"
        }
      ],
      "stateMutability": "view",
      "type": "function",
      "constant": true
    },
    {
      "inputs": [],
      "name": "nextOrganizationId",
      "outputs": [
        {
          "internalType": "uint256",
          "name": "",
          "type": "uint256"
        }
      ],
      "stateMutability": "view",
      "type": "function",
      "constant": true
    },
    {
      "inputs": [
        {
          "internalType": "string",
          "name": "name",
          "type": "string"
        }
      ],
      "name": "createOrganization",
      "outputs": [],
      "stateMutability": "nonpayable",
      "type": "function"
    },
    {
      "inputs": [
        {
          "internalType": "uint256",
          "name": "_organizationId",
          "type": "uint256"
        },
        {
          "internalType": "string",
          "name": "medicineName",
          "type": "string"
        },
        {
          "internalType": "uint256",
          "name": "expiryDate",
          "type": "uint256"
        },
        {
          "internalType": "string",
          "name": "location",
          "type": "string"
        },
        {
          "internalType": "int256",
          "name": "latitude",
          "type": "int256"
        },
        {
          "internalType": "int256",
          "name": "longitude",
          "type": "int256"
        }
      ],
      "name": "manufactureMedicine",
      "outputs": [],
      "stateMutability": "nonpayable",
      "type": "function"
    },
    {
      "inputs": [
        {
          "internalType": "uint256",
          "name": "medicineId",
          "type": "uint256"
        }
      ],
      "name": "getMedicineHistory",
      "outputs": [
        {
          "components": [
            {
              "internalType": "enum Pharma.Status",
              "name": "status",
              "type": "uint8"
            },
            {
              "internalType": "address",
              "name": "handler",
              "type": "address"
            },
            {
              "internalType": "string",
              "name": "locationName",
              "type": "string"
            },
            {
              "internalType": "int256",
              "name": "latitude",
              "type": "int256"
            },
            {
              "internalType": "int256",
              "name": "longitude",
              "type": "int256"
            },
            {
              "internalType": "uint256",
              "name": "date",
              "type": "uint256"
            }
          ],
          "internalType": "struct Pharma.Checkpoint[]",
          "name": "",
          "type": "tuple[]"
        }
      ],
      "stateMutability": "view",
      "type": "function",
      "constant": true
    },
    {
      "inputs": [
        {
          "internalType": "uint256",
          "name": "organizationId",
          "type": "uint256"
        }
      ],
      "name": "getMedicines",
      "outputs": [
        {
          "components": [
            {
              "internalType": "uint256",
              "name": "OrganizationId",
              "type": "uint256"
            },
            {
              "internalType": "uint256",
              "name": "id",
              "type": "uint256"
            },
            {
              "internalType": "string",
              "name": "name",
              "type": "string"
            },
            {
              "internalType": "uint256",
              "name": "manufacturingDate",
              "type": "uint256"
            },
            {
              "internalType": "uint256",
              "name": "expiryDate",
              "type": "uint256"
            },
            {
              "components": [
                {
                  "internalType": "enum Pharma.Status",
                  "name": "status",
                  "type": "uint8"
                },
                {
                  "internalType": "address",
                  "name": "handler",
                  "type": "address"
                },
                {
                  "internalType": "string",
                  "name": "locationName",
                  "type": "string"
                },
                {
                  "internalType": "int256",
                  "name": "latitude",
                  "type": "int256"
                },
                {
                  "internalType": "int256",
                  "name": "longitude",
                  "type": "int256"
                },
                {
                  "internalType": "uint256",
                  "name": "date",
                  "type": "uint256"
                }
              ],
              "internalType": "struct Pharma.Checkpoint[]",
              "name": "history",
              "type": "tuple[]"
            }
          ],
          "internalType": "struct Pharma.Medicine[]",
          "name": "",
          "type": "tuple[]"
        }
      ],
      "stateMutability": "view",
      "type": "function",
      "constant": true
    },
    {
      "inputs": [
        {
          "internalType": "uint256",
          "name": "_organizaitonId",
          "type": "uint256"
        },
        {
          "internalType": "address",
          "name": "newMember",
          "type": "address"
        }
      ],
      "name": "approveMembers",
      "outputs": [],
      "stateMutability": "nonpayable",
      "type": "function"
    },
    {
      "inputs": [
        {
          "internalType": "uint256",
          "name": "_organizaitonId",
          "type": "uint256"
        },
        {
          "internalType": "address",
          "name": "newMember",
          "type": "address"
        }
      ],
      "name": "disApproveMembers",
      "outputs": [],
      "stateMutability": "nonpayable",
      "type": "function"
    },
    {
      "inputs": [
        {
          "internalType": "uint256",
          "name": "medicineId",
          "type": "uint256"
        },
        {
          "internalType": "string",
          "name": "locationName",
          "type": "string"
        },
        {
          "internalType": "int256",
          "name": "latitude",
          "type": "int256"
        },
        {
          "internalType": "int256",
          "name": "longitude",
          "type": "int256"
        }
      ],
      "name": "addInTransitCheckpoint",
      "outputs": [],
      "stateMutability": "nonpayable",
      "type": "function"
    },
    {
      "inputs": [
        {
          "internalType": "uint256",
          "name": "medicineId",
          "type": "uint256"
        },
        {
          "internalType": "string",
          "name": "locationName",
          "type": "string"
        },
        {
          "internalType": "int256",
          "name": "latitude",
          "type": "int256"
        },
        {
          "internalType": "int256",
          "name": "longitude",
          "type": "int256"
        }
      ],
      "name": "addShippedCheckpoint",
      "outputs": [],
      "stateMutability": "nonpayable",
      "type": "function"
    },
    {
      "inputs": [
        {
          "internalType": "uint256",
          "name": "medicineId",
          "type": "uint256"
        },
        {
          "internalType": "string",
          "name": "locationName",
          "type": "string"
        },
        {
          "internalType": "int256",
          "name": "latitude",
          "type": "int256"
        },
        {
          "internalType": "int256",
          "name": "longitude",
          "type": "int256"
        }
      ],
      "name": "addSoldCheckpoint",
      "outputs": [],
      "stateMutability": "nonpayable",
      "type": "function"
    },
    {
      "inputs": [
        {
          "internalType": "uint256",
          "name": "medicineId",
          "type": "uint256"
        }
      ],
      "name": "getLatestStatus",
      "outputs": [
        {
          "internalType": "enum Pharma.Status",
          "name": "",
          "type": "uint8"
        }
      ],
      "stateMutability": "view",
      "type": "function",
      "constant": true
    },
    {
      "inputs": [
        {
          "internalType": "uint256",
          "name": "organizationId",
          "type": "uint256"
        },
        {
          "internalType": "address",
          "name": "member",
          "type": "address"
        }
      ],
      "name": "isMemberOfOrganization",
      "outputs": [
        {
          "internalType": "bool",
          "name": "",
          "type": "bool"
        }
      ],
      "stateMutability": "view",
      "type": "function",
      "constant": true
    },
    {
      "inputs": [],
      "name": "getMyOrganizationId",
      "outputs": [
        {
          "internalType": "int256",
          "name": "",
          "type": "int256"
        }
      ],
      "stateMutability": "view",
      "type": "function",
      "constant": true
    }
  ],
  "bytecode": "0x608060405234801561001057600080fd5b50612b62806100206000396000f3fe608060405234801561001057600080fd5b50600436106101095760003560e01c8063b11f6442116100a2578063d2830de311610071578063d2830de3146102c9578063dab5026d146102e7578063e08958b014610317578063e8e7748214610347578063ebac73171461036357610109565b8063b11f64421461022d578063b8251c681461025d578063c07720cc14610279578063c757fc2a1461029557610109565b8063627dc35e116100de578063627dc35e146101a95780636427acca146101c5578063649b71af146101e157806393c9a005146101fd57610109565b80621045ad1461010e578062adb0f81461013f5780630719d48f1461015d5780635b73e7b31461018d575b600080fd5b61012860048036038101906101239190611e23565b610381565b604051610136929190612651565b60405180910390f35b61014761044d565b6040516101549190612761565b60405180910390f35b61017760048036038101906101729190611e23565b610453565b60405161018491906125bc565b60405180910390f35b6101a760048036038101906101a29190611e4c565b610655565b005b6101c360048036038101906101be9190611e88565b6107af565b005b6101df60048036038101906101da9190611dde565b610959565b005b6101fb60048036038101906101f69190611f08565b610a72565b005b61021760048036038101906102129190611e4c565b610e71565b6040516102249190612600565b60405180910390f35b61024760048036038101906102429190611db5565b610f21565b6040516102549190612761565b60405180910390f35b61027760048036038101906102729190611e88565b610f39565b005b610293600480360381019061028e9190611e88565b6110e2565b005b6102af60048036038101906102aa9190611e23565b61129a565b6040516102c095949392919061277c565b60405180910390f35b6102d1611358565b6040516102de9190612761565b60405180910390f35b61030160048036038101906102fc9190611e23565b61135e565b60405161030e91906125de565b60405180910390f35b610331600480360381019061032c9190611e23565b611789565b60405161033e919061261b565b60405180910390f35b610361600480360381019061035c9190611e4c565b61184c565b005b61036b6119a6565b6040516103789190612636565b60405180910390f35b60006020528060005260406000206000915090508060000180546103a4906129ba565b80601f01602080910402602001604051908101604052809291908181526020018280546103d0906129ba565b801561041d5780601f106103f25761010080835404028352916020019161041d565b820191906000526020600020905b81548152906001019060200180831161040057829003601f168201915b5050505050908060010160009054906101000a900473ffffffffffffffffffffffffffffffffffffffff16905082565b60035481565b606060026000838152602001908152602001600020600501805480602002602001604051908101604052809291908181526020016000905b8282101561064a57838290600052602060002090600502016040518060c00160405290816000820160009054906101000a900460ff1660038111156104f9577f4e487b7100000000000000000000000000000000000000000000000000000000600052602160045260246000fd5b6003811115610531577f4e487b7100000000000000000000000000000000000000000000000000000000600052602160045260246000fd5b81526020016000820160019054906101000a900473ffffffffffffffffffffffffffffffffffffffff1673ffffffffffffffffffffffffffffffffffffffff1673ffffffffffffffffffffffffffffffffffffffff16815260200160018201805461059b906129ba565b80601f01602080910402602001604051908101604052809291908181526020018280546105c7906129ba565b80156106145780601f106105e957610100808354040283529160200191610614565b820191906000526020600020905b8154815290600101906020018083116105f757829003601f168201915b5050505050815260200160028201548152602001600382015481526020016004820154815250508152602001906001019061048b565b505050509050919050565b81806001541161069a576040517f08c379a000000000000000000000000000000000000000000000000000000000815260040161069190612741565b60405180910390fd5b823373ffffffffffffffffffffffffffffffffffffffff1660008083815260200190815260200160002060010160009054906101000a900473ffffffffffffffffffffffffffffffffffffffff1673ffffffffffffffffffffffffffffffffffffffff161461073e576040517f08c379a0000000000000000000000000000000000000000000000000000000008152600401610735906126c1565b60405180910390fd5b600160008086815260200190815260200160002060030160008573ffffffffffffffffffffffffffffffffffffffff1673ffffffffffffffffffffffffffffffffffffffff16815260200190815260200160002060006101000a81548160ff02191690831515021790555050505050565b8480600354116107f4576040517f08c379a00000000000000000000000000000000000000000000000000000000081526004016107eb90612721565b60405180910390fd5b856000600260008381526020019081526020016000206000015490506001151560008083815260200190815260200160002060030160003373ffffffffffffffffffffffffffffffffffffffff1673ffffffffffffffffffffffffffffffffffffffff16815260200190815260200160002060009054906101000a900460ff161515146108b6576040517f08c379a00000000000000000000000000000000000000000000000000000000081526004016108ad906126e1565b60405180910390fd5b60006108c189611789565b60038111156108f9577f4e487b7100000000000000000000000000000000000000000000000000000000600052602160045260246000fd5b9050600181111561093f576040517f08c379a0000000000000000000000000000000000000000000000000000000008152600401610936906126a1565b60405180910390fd5b61094e8960028a8a8a8a6119ed565b505050505050505050565b81816000806001548152602001908152602001600020600001919061097f929190611bcd565b5033600080600154815260200190815260200160002060010160006101000a81548173ffffffffffffffffffffffffffffffffffffffff021916908373ffffffffffffffffffffffffffffffffffffffff160217905550600154600460003373ffffffffffffffffffffffffffffffffffffffff1673ffffffffffffffffffffffffffffffffffffffff168152602001908152602001600020819055507f51acb4d12bb0c0a56f85ccb4127a2b43bb01dd29b551a4cc1882fb3f137cb682600154604051610a4d9190612761565b60405180910390a16001806000828254610a679190612886565b925050819055505050565b878060015411610ab7576040517f08c379a0000000000000000000000000000000000000000000000000000000008152600401610aae90612741565b60405180910390fd5b883373ffffffffffffffffffffffffffffffffffffffff1660008083815260200190815260200160002060010160009054906101000a900473ffffffffffffffffffffffffffffffffffffffff1673ffffffffffffffffffffffffffffffffffffffff1614610b5b576040517f08c379a0000000000000000000000000000000000000000000000000000000008152600401610b52906126c1565b60405180910390fd5b6000808b8152602001908152602001600020600201600354908060018154018082558091505060019003906000526020600020016000909190919091505589600260006003548152602001908152602001600020600001819055506003546002600060035481526020019081526020016000206001018190555088886002600060035481526020019081526020016000206002019190610bfc929190611bcd565b50426002600060035481526020019081526020016000206003018190555086600260006003548152602001908152602001600020600401819055506002600060035481526020019081526020016000206005016040518060c0016040528060006003811115610c94577f4e487b7100000000000000000000000000000000000000000000000000000000600052602160045260246000fd5b81526020013373ffffffffffffffffffffffffffffffffffffffff16815260200188888080601f016020809104026020016040519081016040528093929190818152602001838380828437600081840152601f19601f82011690508083019250505050505050815260200186815260200185815260200142815250908060018154018082558091505060019003906000526020600020906005020160009091909190915060008201518160000160006101000a81548160ff02191690836003811115610d89577f4e487b7100000000000000000000000000000000000000000000000000000000600052602160045260246000fd5b021790555060208201518160000160016101000a81548173ffffffffffffffffffffffffffffffffffffffff021916908373ffffffffffffffffffffffffffffffffffffffff1602179055506040820151816001019080519060200190610df1929190611c53565b50606082015181600201556080820151816003015560a0820151816004015550507fbfe13df2f6bd7b10c5c33fa9d44f3d1f2440dbb0f4930b2b2da8f9dd3d80b342600354604051610e439190612761565b60405180910390a1600160036000828254610e5e9190612886565b9250508190555050505050505050505050565b6000828060015411610eb8576040517f08c379a0000000000000000000000000000000000000000000000000000000008152600401610eaf90612741565b60405180910390fd5b60008085815260200190815260200160002060030160008473ffffffffffffffffffffffffffffffffffffffff1673ffffffffffffffffffffffffffffffffffffffff16815260200190815260200160002060009054906101000a900460ff1691505092915050565b60046020528060005260406000206000915090505481565b848060035411610f7e576040517f08c379a0000000000000000000000000000000000000000000000000000000008152600401610f7590612721565b60405180910390fd5b856000600260008381526020019081526020016000206000015490506001151560008083815260200190815260200160002060030160003373ffffffffffffffffffffffffffffffffffffffff1673ffffffffffffffffffffffffffffffffffffffff16815260200190815260200160002060009054906101000a900460ff16151514611040576040517f08c379a0000000000000000000000000000000000000000000000000000000008152600401611037906126e1565b60405180910390fd5b600061104b89611789565b6003811115611083577f4e487b7100000000000000000000000000000000000000000000000000000000600052602160045260246000fd5b9050600281146110c8576040517f08c379a00000000000000000000000000000000000000000000000000000000081526004016110bf90612681565b60405180910390fd5b6110d78960038a8a8a8a6119ed565b505050505050505050565b848060035411611127576040517f08c379a000000000000000000000000000000000000000000000000000000000815260040161111e90612721565b60405180910390fd5b856000600260008381526020019081526020016000206000015490506001151560008083815260200190815260200160002060030160003373ffffffffffffffffffffffffffffffffffffffff1673ffffffffffffffffffffffffffffffffffffffff16815260200190815260200160002060009054906101000a900460ff161515146111e9576040517f08c379a00000000000000000000000000000000000000000000000000000000081526004016111e0906126e1565b60405180910390fd5b60006111f489611789565b600381111561122c577f4e487b7100000000000000000000000000000000000000000000000000000000600052602160045260246000fd5b905060008114158015611240575060018114155b15611280576040517f08c379a000000000000000000000000000000000000000000000000000000000815260040161127790612701565b60405180910390fd5b61128f8960018a8a8a8a6119ed565b505050505050505050565b60026020528060005260406000206000915090508060000154908060010154908060020180546112c9906129ba565b80601f01602080910402602001604051908101604052809291908181526020018280546112f5906129ba565b80156113425780601f1061131757610100808354040283529160200191611342565b820191906000526020600020905b81548152906001019060200180831161132557829003601f168201915b5050505050908060030154908060040154905085565b60015481565b6060600080600084815260200190815260200160002060020180549050905060008167ffffffffffffffff8111156113bf577f4e487b7100000000000000000000000000000000000000000000000000000000600052604160045260246000fd5b6040519080825280602002602001820160405280156113f857816020015b6113e5611cd9565b8152602001906001900390816113dd5790505b50905060005b8281101561177e5760008060008781526020019081526020016000206002018281548110611455577f4e487b7100000000000000000000000000000000000000000000000000000000600052603260045260246000fd5b90600052602060002001549050600260008281526020019081526020016000206040518060c001604052908160008201548152602001600182015481526020016002820180546114a4906129ba565b80601f01602080910402602001604051908101604052809291908181526020018280546114d0906129ba565b801561151d5780601f106114f25761010080835404028352916020019161151d565b820191906000526020600020905b81548152906001019060200180831161150057829003601f168201915b50505050508152602001600382015481526020016004820154815260200160058201805480602002602001604051908101604052809291908181526020016000905b8282101561171e57838290600052602060002090600502016040518060c00160405290816000820160009054906101000a900460ff1660038111156115cd577f4e487b7100000000000000000000000000000000000000000000000000000000600052602160045260246000fd5b6003811115611605577f4e487b7100000000000000000000000000000000000000000000000000000000600052602160045260246000fd5b81526020016000820160019054906101000a900473ffffffffffffffffffffffffffffffffffffffff1673ffffffffffffffffffffffffffffffffffffffff1673ffffffffffffffffffffffffffffffffffffffff16815260200160018201805461166f906129ba565b80601f016020809104026020016040519081016040528092919081815260200182805461169b906129ba565b80156116e85780601f106116bd576101008083540402835291602001916116e8565b820191906000526020600020905b8154815290600101906020018083116116cb57829003601f168201915b5050505050815260200160028201548152602001600382015481526020016004820154815250508152602001906001019061155f565b505050508152505083838151811061175f577f4e487b7100000000000000000000000000000000000000000000000000000000600052603260045260246000fd5b6020026020010181905250508080611776906129ec565b9150506113fe565b508092505050919050565b6000806000600260008581526020019081526020016000206005018054905011156118435760026000848152602001908152602001600020600501600160026000868152602001908152602001600020600501805490506117ea91906128dc565b81548110611821577f4e487b7100000000000000000000000000000000000000000000000000000000600052603260045260246000fd5b906000526020600020906005020160000160009054906101000a900460ff1690505b80915050919050565b818060015411611891576040517f08c379a000000000000000000000000000000000000000000000000000000000815260040161188890612741565b60405180910390fd5b823373ffffffffffffffffffffffffffffffffffffffff1660008083815260200190815260200160002060010160009054906101000a900473ffffffffffffffffffffffffffffffffffffffff1673ffffffffffffffffffffffffffffffffffffffff1614611935576040517f08c379a000000000000000000000000000000000000000000000000000000000815260040161192c906126c1565b60405180910390fd5b600080600086815260200190815260200160002060030160008573ffffffffffffffffffffffffffffffffffffffff1673ffffffffffffffffffffffffffffffffffffffff16815260200190815260200160002060006101000a81548160ff02191690831515021790555050505050565b6000600460003373ffffffffffffffffffffffffffffffffffffffff1673ffffffffffffffffffffffffffffffffffffffff16815260200190815260200160002054905090565b600260008781526020019081526020016000206005016040518060c00160405280876003811115611a47577f4e487b7100000000000000000000000000000000000000000000000000000000600052602160045260246000fd5b81526020013373ffffffffffffffffffffffffffffffffffffffff16815260200186868080601f016020809104026020016040519081016040528093929190818152602001838380828437600081840152601f19601f82011690508083019250505050505050815260200184815260200183815260200142815250908060018154018082558091505060019003906000526020600020906005020160009091909190915060008201518160000160006101000a81548160ff02191690836003811115611b3c577f4e487b7100000000000000000000000000000000000000000000000000000000600052602160045260246000fd5b021790555060208201518160000160016101000a81548173ffffffffffffffffffffffffffffffffffffffff021916908373ffffffffffffffffffffffffffffffffffffffff1602179055506040820151816001019080519060200190611ba4929190611c53565b50606082015181600201556080820151816003015560a082015181600401555050505050505050565b828054611bd9906129ba565b90600052602060002090601f016020900481019282611bfb5760008555611c42565b82601f10611c1457803560ff1916838001178555611c42565b82800160010185558215611c42579182015b82811115611c41578235825591602001919060010190611c26565b5b509050611c4f9190611d0f565b5090565b828054611c5f906129ba565b90600052602060002090601f016020900481019282611c815760008555611cc8565b82601f10611c9a57805160ff1916838001178555611cc8565b82800160010185558215611cc8579182015b82811115611cc7578251825591602001919060010190611cac565b5b509050611cd59190611d0f565b5090565b6040518060c001604052806000815260200160008152602001606081526020016000815260200160008152602001606081525090565b5b80821115611d28576000816000905550600101611d10565b5090565b600081359050611d3b81612ae7565b92915050565b600081359050611d5081612afe565b92915050565b60008083601f840112611d6857600080fd5b8235905067ffffffffffffffff811115611d8157600080fd5b602083019150836001820283011115611d9957600080fd5b9250929050565b600081359050611daf81612b15565b92915050565b600060208284031215611dc757600080fd5b6000611dd584828501611d2c565b91505092915050565b60008060208385031215611df157600080fd5b600083013567ffffffffffffffff811115611e0b57600080fd5b611e1785828601611d56565b92509250509250929050565b600060208284031215611e3557600080fd5b6000611e4384828501611da0565b91505092915050565b60008060408385031215611e5f57600080fd5b6000611e6d85828601611da0565b9250506020611e7e85828601611d2c565b9150509250929050565b600080600080600060808688031215611ea057600080fd5b6000611eae88828901611da0565b955050602086013567ffffffffffffffff811115611ecb57600080fd5b611ed788828901611d56565b94509450506040611eea88828901611d41565b9250506060611efb88828901611d41565b9150509295509295909350565b60008060008060008060008060c0898b031215611f2457600080fd5b6000611f328b828c01611da0565b985050602089013567ffffffffffffffff811115611f4f57600080fd5b611f5b8b828c01611d56565b97509750506040611f6e8b828c01611da0565b955050606089013567ffffffffffffffff811115611f8b57600080fd5b611f978b828c01611d56565b94509450506080611faa8b828c01611d41565b92505060a0611fbb8b828c01611d41565b9150509295985092959890939650565b6000611fd78383612485565b905092915050565b6000611feb838361250e565b905092915050565b611ffc81612910565b82525050565b61200b81612910565b82525050565b600061201c826127f6565b6120268185612831565b935083602082028501612038856127d6565b8060005b8581101561207457848403895281516120558582611fcb565b945061206083612817565b925060208a0199505060018101905061203c565b50829750879550505050505092915050565b6000612091826127f6565b61209b8185612842565b9350836020820285016120ad856127d6565b8060005b858110156120e957848403895281516120ca8582611fcb565b94506120d583612817565b925060208a019950506001810190506120b1565b50829750879550505050505092915050565b600061210682612801565b6121108185612853565b935083602082028501612122856127e6565b8060005b8581101561215e578484038952815161213f8582611fdf565b945061214a83612824565b925060208a01995050600181019050612126565b50829750879550505050505092915050565b61217981612922565b82525050565b61218881612975565b82525050565b61219781612975565b82525050565b6121a681612941565b82525050565b6121b581612941565b82525050565b60006121c68261280c565b6121d08185612864565b93506121e0818560208601612987565b6121e981612ac2565b840191505092915050565b60006121ff8261280c565b6122098185612875565b9350612219818560208601612987565b61222281612ac2565b840191505092915050565b600061223a602783612875565b91507f696e76616c6964207374617475732049642c206974656d206e6f74207368697060008301527f70656420796574000000000000000000000000000000000000000000000000006020830152604082019050919050565b60006122a0601f83612875565b91507f696e76616c69642049642c206974656d206e6f7420696e207472616e736974006000830152602082019050919050565b60006122e0602183612875565b91507f596f7520617265206e6f74204f776e6572206f66204f7267616e697a6174696f60008301527f6e000000000000000000000000000000000000000000000000000000000000006020830152604082019050919050565b6000612346603483612875565b91507f596f7520617265206e6f7420616e20617070726f766564206d656d626572206f60008301527f662074686973204f7267616e697a6174696f6e2e0000000000000000000000006020830152604082019050919050565b60006123ac603583612875565b91507f696e76616c69642049642c206974656d206e6f7420696e207472616e7369742060008301527f6f72206d616e75666163757265642073746174757300000000000000000000006020830152604082019050919050565b6000612412601383612875565b91507f496e76616c6964206d65646963696e65204964000000000000000000000000006000830152602082019050919050565b6000612452601783612875565b91507f496e76616c6964204f7267616e697a6174696f6e2049640000000000000000006000830152602082019050919050565b600060c08301600083015161249d600086018261217f565b5060208301516124b06020860182611ff3565b50604083015184820360408601526124c882826121bb565b91505060608301516124dd606086018261219d565b5060808301516124f0608086018261219d565b5060a083015161250360a086018261259e565b508091505092915050565b600060c083016000830151612526600086018261259e565b506020830151612539602086018261259e565b506040830151848203604086015261255182826121bb565b9150506060830151612566606086018261259e565b506080830151612579608086018261259e565b5060a083015184820360a08601526125918282612011565b9150508091505092915050565b6125a78161296b565b82525050565b6125b68161296b565b82525050565b600060208201905081810360008301526125d68184612086565b905092915050565b600060208201905081810360008301526125f881846120fb565b905092915050565b60006020820190506126156000830184612170565b92915050565b6000602082019050612630600083018461218e565b92915050565b600060208201905061264b60008301846121ac565b92915050565b6000604082019050818103600083015261266b81856121f4565b905061267a6020830184612002565b9392505050565b6000602082019050818103600083015261269a8161222d565b9050919050565b600060208201905081810360008301526126ba81612293565b9050919050565b600060208201905081810360008301526126da816122d3565b9050919050565b600060208201905081810360008301526126fa81612339565b9050919050565b6000602082019050818103600083015261271a8161239f565b9050919050565b6000602082019050818103600083015261273a81612405565b9050919050565b6000602082019050818103600083015261275a81612445565b9050919050565b600060208201905061277660008301846125ad565b92915050565b600060a08201905061279160008301886125ad565b61279e60208301876125ad565b81810360408301526127b081866121f4565b90506127bf60608301856125ad565b6127cc60808301846125ad565b9695505050505050565b6000819050602082019050919050565b6000819050602082019050919050565b600081519050919050565b600081519050919050565b600081519050919050565b6000602082019050919050565b6000602082019050919050565b600082825260208201905092915050565b600082825260208201905092915050565b600082825260208201905092915050565b600082825260208201905092915050565b600082825260208201905092915050565b60006128918261296b565b915061289c8361296b565b9250827fffffffffffffffffffffffffffffffffffffffffffffffffffffffffffffffff038211156128d1576128d0612a35565b5b828201905092915050565b60006128e78261296b565b91506128f28361296b565b92508282101561290557612904612a35565b5b828203905092915050565b600061291b8261294b565b9050919050565b60008115159050919050565b600081905061293c82612ad3565b919050565b6000819050919050565b600073ffffffffffffffffffffffffffffffffffffffff82169050919050565b6000819050919050565b60006129808261292e565b9050919050565b60005b838110156129a557808201518184015260208101905061298a565b838111156129b4576000848401525b50505050565b600060028204905060018216806129d257607f821691505b602082108114156129e6576129e5612a93565b5b50919050565b60006129f78261296b565b91507fffffffffffffffffffffffffffffffffffffffffffffffffffffffffffffffff821415612a2a57612a29612a35565b5b600182019050919050565b7f4e487b7100000000000000000000000000000000000000000000000000000000600052601160045260246000fd5b7f4e487b7100000000000000000000000000000000000000000000000000000000600052602160045260246000fd5b7f4e487b7100000000000000000000000000000000000000000000000000000000600052602260045260246000fd5b6000601f19601f8301169050919050565b60048110612ae457612ae3612a64565b5b50565b612af081612910565b8114612afb57600080fd5b50565b612b0781612941565b8114612b1257600080fd5b50565b612b1e8161296b565b8114612b2957600080fd5b5056fea2646970667358221220718b11dbf8d9be5a0b367c584be856d9ac006bdffacdc3abd6d22425b9d59eeb64736f6c63430008000033",
  "immutableReferences": {},
  "source": "// SPDX-License-Identifier: GPL-3.0\r\n\r\npragma solidity ^0.8.0;\r\n\r\ncontract Pharma {\r\n\r\n    struct Organization{\r\n        string name;\r\n        address owner;\r\n        uint[] medicines;\r\n        mapping(address => bool) approvedMembers;\r\n    }\r\n\r\n    struct Medicine{\r\n        uint OrganizationId;\r\n        uint id;\r\n        string name;\r\n        uint manufacturingDate;\r\n        uint expiryDate;\r\n        Checkpoint[] history;\r\n    }\r\n\r\n    struct Checkpoint{\r\n        Status status;\r\n        address handler;\r\n        string locationName;\r\n        int latitude;\r\n        int longitude;\r\n        uint date;\r\n    }\r\n\r\n        enum Status{\r\n        Manufactured,\r\n        InTransit,\r\n        Shipped,\r\n        Sold\r\n    }\r\n\r\n\r\n\r\n    mapping(uint => Organization) public  Organizations;\r\n    uint public nextOrganizationId;\r\n    mapping(uint=> Medicine) public Medicines;\r\n    uint public nextMedicineId;\r\n\r\n    mapping(address => uint) public OrganizationOwners;\r\n\r\n    modifier onlyOrganizationOwner(uint organizationId){\r\n        require(Organizations[organizationId].owner == msg.sender, \"You are not Owner of Organization\");\r\n        _;\r\n    }\r\n\r\n    modifier onlyApprovedMembers(uint medicineId){\r\n        uint organizationId = Medicines[medicineId].OrganizationId;\r\n        require(Organizations[organizationId].approvedMembers[msg.sender] == true, \"You are not an approved member of this Organization.\");\r\n        _;\r\n    }\r\n\r\n    modifier organizationExists(uint organizationId){\r\n        require(nextOrganizationId > organizationId, \"Invalid Organization Id\");\r\n        _;\r\n    }\r\n\r\n    modifier medicineExists(uint medicineId){\r\n        require(nextMedicineId > medicineId, \"Invalid medicine Id\");\r\n        _;\r\n    }\r\n\r\n    event medicineLaunched(uint medicineId);\r\n    event organizationLaunched(uint organizationId);\r\n\r\n    function createOrganization(string calldata name) external {\r\n        Organizations[nextOrganizationId].name = name;\r\n        Organizations[nextOrganizationId].owner = msg.sender;\r\n        OrganizationOwners[msg.sender] = (nextOrganizationId);\r\n        emit organizationLaunched(nextOrganizationId);\r\n        nextOrganizationId += 1;\r\n    }\r\n\r\n    function manufactureMedicine(uint _organizationId, string calldata medicineName, uint expiryDate, string calldata location, int latitude, int longitude) external organizationExists(_organizationId) onlyOrganizationOwner(_organizationId) {\r\n\r\n        Organizations[_organizationId].medicines.push(nextMedicineId);\r\n\r\n        Medicines[nextMedicineId].OrganizationId = _organizationId;\r\n        Medicines[nextMedicineId].id = nextMedicineId;\r\n        Medicines[nextMedicineId].name = medicineName;\r\n        Medicines[nextMedicineId].manufacturingDate = block.timestamp;\r\n        Medicines[nextMedicineId].expiryDate = expiryDate;\r\n\r\n        Medicines[nextMedicineId].history.push(Checkpoint({\r\n            status: Status.Manufactured,\r\n            handler: msg.sender,\r\n            locationName: location,\r\n            latitude: latitude,\r\n            longitude: longitude,\r\n            date: block.timestamp\r\n        }));\r\n        emit medicineLaunched(nextMedicineId);\r\n        nextMedicineId += 1;\r\n    }\r\n\r\n    function getMedicineHistory(uint medicineId) view external returns(Checkpoint[] memory){\r\n        return Medicines[medicineId].history;\r\n    }\r\n\r\n    function getMedicines(uint organizationId) view external returns(Medicine[] memory){\r\n        uint nrMedicines = Organizations[organizationId].medicines.length;\r\n        Medicine[] memory ReturnMedicines = new Medicine[](nrMedicines);\r\n\r\n        for (uint i = 0; i < nrMedicines; i++) \r\n        {\r\n            uint medIdx = Organizations[organizationId].medicines[i];\r\n            ReturnMedicines[i] = (Medicines[medIdx]);\r\n        }\r\n\r\n        return ReturnMedicines;\r\n    }\r\n\r\n    function approveMembers(uint _organizaitonId, address newMember) external organizationExists(_organizaitonId) onlyOrganizationOwner(_organizaitonId)  {\r\n        Organizations[_organizaitonId].approvedMembers[newMember] = true;\r\n    }\r\n\r\n    function disApproveMembers(uint _organizaitonId, address newMember) external organizationExists(_organizaitonId) onlyOrganizationOwner(_organizaitonId)  {\r\n        Organizations[_organizaitonId].approvedMembers[newMember] = false;\r\n    }\r\n\r\n    function addInTransitCheckpoint(uint medicineId, string calldata locationName, int latitude, int longitude) external medicineExists(medicineId) onlyApprovedMembers(medicineId) {\r\n        uint lastStatus = uint(getLatestStatus(medicineId));\r\n        if (lastStatus != 0 && lastStatus != 1){\r\n            revert(\"invalid Id, item not in transit or manufacured status\");\r\n        }\r\n        addCheckpointData(medicineId, Status.InTransit, locationName, latitude, longitude);\r\n    }\r\n\r\n    function addShippedCheckpoint(uint medicineId, string calldata locationName, int latitude, int longitude) external medicineExists(medicineId) onlyApprovedMembers(medicineId) {\r\n        uint lastStatus = uint(getLatestStatus(medicineId));\r\n        if (lastStatus > 1){\r\n            revert(\"invalid Id, item not in transit\");\r\n        }\r\n        addCheckpointData(medicineId, Status.Shipped, locationName, latitude, longitude);\r\n    }\r\n\r\n    function addSoldCheckpoint(uint medicineId, string calldata locationName, int latitude, int longitude) external medicineExists(medicineId) onlyApprovedMembers(medicineId) {\r\n        uint lastStatus = uint(getLatestStatus(medicineId));\r\n        if (lastStatus != 2){\r\n            revert(\"invalid status Id, item not shipped yet\");\r\n        }\r\n        addCheckpointData(medicineId, Status.Sold, locationName, latitude, longitude);\r\n    }\r\n    function addCheckpointData(uint medicineId, Status newStatus, string calldata locationName, int latitude, int longitude) internal{\r\n        Medicines[medicineId].history.push(Checkpoint({\r\n            status: newStatus,\r\n            handler: msg.sender,\r\n            locationName: locationName,\r\n            latitude: latitude,\r\n            longitude: longitude,\r\n            date: block.timestamp\r\n        }));\r\n    }\r\n\r\n    function getLatestStatus(uint medicineId) public view returns(Status){\r\n        Status lastStatus;\r\n        if (Medicines[medicineId].history.length > 0){\r\n            lastStatus = Medicines[medicineId].history[Medicines[medicineId].history.length - 1].status;\r\n        }\r\n        return lastStatus;\r\n    }\r\n\r\n    function isMemberOfOrganization(uint organizationId, address member) public view organizationExists(organizationId) returns(bool){\r\n        return Organizations[organizationId].approvedMembers[member];\r\n    }\r\n\r\n    function getMyOrganizationId() external view returns(int){\r\n        return int(OrganizationOwners[msg.sender]);\r\n    }\r\n\r\n}",
  "sourcePath": "C:\\Users\\Reain\\Documents\\GitHub\\PharmaChain\\truffle\\contracts\\Pharma.sol",
  "compiler": {
    "name": "solc",
    "version": "0.8.0+commit.c7dfd78e.Emscripten.clang"
  },
  "schemaVersion": "3.4.16",
  "updatedAt": "2025-05-17T15:09:24.934Z",
  "networkType": "ethereum",
  "devdoc": {
    "kind": "dev",
    "methods": {},
    "version": 1
  },
  "userdoc": {
    "kind": "user",
    "methods": {},
    "version": 1
  }
}